{"abi":[{"type":"constructor","inputs":[{"name":"name","type":"string","internalType":"string"},{"name":"symbol","type":"string","internalType":"string"},{"name":"initialAccount","type":"address","internalType":"address"},{"name":"initialBalance","type":"uint256","internalType":"uint256"}],"stateMutability":"payable"},{"type":"function","name":"allowance","inputs":[{"name":"owner","type":"address","internalType":"address"},{"name":"spender","type":"address","internalType":"address"}],"outputs":[{"name":"","type":"uint256","internalType":"uint256"}],"stateMutability":"view"},{"type":"function","name":"approve","inputs":[{"name":"spender","type":"address","internalType":"address"},{"name":"value","type":"uint256","internalType":"uint256"}],"outputs":[{"name":"","type":"bool","internalType":"bool"}],"stateMutability":"nonpayable"},{"type":"function","name":"approveInternal","inputs":[{"name":"owner","type":"address","internalType":"address"},{"name":"spender","type":"address","internalType":"address"},{"name":"value","type":"uint256","internalType":"uint256"}],"outputs":[],"stateMutability":"nonpayable"},{"type":"function","name":"balanceOf","inputs":[{"name":"account","type":"address","internalType":"address"}],"outputs":[{"name":"","type":"uint256","internalType":"uint256"}],"stateMutability":"view"},{"type":"function","name":"burn","inputs":[{"name":"account","type":"address","internalType":"address"},{"name":"amount","type":"uint256","internalType":"uint256"}],"outputs":[],"stateMutability":"nonpayable"},{"type":"function","name":"decimals","inputs":[],"outputs":[{"name":"","type":"uint8","internalType":"uint8"}],"stateMutability":"view"},{"type":"function","name":"mint","inputs":[{"name":"account","type":"address","internalType":"address"},{"name":"amount","type":"uint256","internalType":"uint256"}],"outputs":[],"stateMutability":"nonpayable"},{"type":"function","name":"name","inputs":[],"outputs":[{"name":"","type":"string","internalType":"string"}],"stateMutability":"view"},{"type":"function","name":"symbol","inputs":[],"outputs":[{"name":"","type":"string","internalType":"string"}],"stateMutability":"view"},{"type":"function","name":"totalSupply","inputs":[],"outputs":[{"name":"","type":"uint256","internalType":"uint256"}],"stateMutability":"view"},{"type":"function","name":"transfer","inputs":[{"name":"to","type":"address","internalType":"address"},{"name":"value","type":"uint256","internalType":"uint256"}],"outputs":[{"name":"","type":"bool","internalType":"bool"}],"stateMutability":"nonpayable"},{"type":"function","name":"transferFrom","inputs":[{"name":"from","type":"address","internalType":"address"},{"name":"to","type":"address","internalType":"address"},{"name":"value","type":"uint256","internalType":"uint256"}],"outputs":[{"name":"","type":"bool","internalType":"bool"}],"stateMutability":"nonpayable"},{"type":"function","name":"transferInternal","inputs":[{"name":"from","type":"address","internalType":"address"},{"name":"to","type":"address","internalType":"address"},{"name":"value","type":"uint256","internalType":"uint256"}],"outputs":[],"stateMutability":"nonpayable"},{"type":"event","name":"Approval","inputs":[{"name":"owner","type":"address","indexed":true,"internalType":"address"},{"name":"spender","type":"address","indexed":true,"internalType":"address"},{"name":"value","type":"uint256","indexed":false,"internalType":"uint256"}],"anonymous":false},{"type":"event","name":"Transfer","inputs":[{"name":"from","type":"address","indexed":true,"internalType":"address"},{"name":"to","type":"address","indexed":true,"internalType":"address"},{"name":"value","type":"uint256","indexed":false,"internalType":"uint256"}],"anonymous":false},{"type":"error","name":"ERC20InsufficientAllowance","inputs":[{"name":"spender","type":"address","internalType":"address"},{"name":"allowance","type":"uint256","internalType":"uint256"},{"name":"needed","type":"uint256","internalType":"uint256"}]},{"type":"error","name":"ERC20InsufficientBalance","inputs":[{"name":"sender","type":"address","internalType":"address"},{"name":"balance","type":"uint256","internalType":"uint256"},{"name":"needed","type":"uint256","internalType":"uint256"}]},{"type":"error","name":"ERC20InvalidApprover","inputs":[{"name":"approver","type":"address","internalType":"address"}]},{"type":"error","name":"ERC20InvalidReceiver","inputs":[{"name":"receiver","type":"address","internalType":"address"}]},{"type":"error","name":"ERC20InvalidSender","inputs":[{"name":"sender","type":"address","internalType":"address"}]},{"type":"error","name":"ERC20InvalidSpender","inputs":[{"name":"spender","type":"address","internalType":"address"}]}],"bytecode":{"object":"0x6080604052604051610cce380380610cce8339810160408190526100229161027b565b838360036100308382610395565b50600461003d8282610395565b505050610050828261005960201b60201c565b5050505061047a565b6001600160a01b0382166100885760405163ec442f0560e01b8152600060048201526024015b60405180910390fd5b61009460008383610098565b5050565b6001600160a01b0383166100c35780600260008282546100b89190610453565b909155506101359050565b6001600160a01b038316600090815260208190526040902054818110156101165760405163391434e360e21b81526001600160a01b0385166004820152602481018290526044810183905260640161007f565b6001600160a01b03841660009081526020819052604090209082900390555b6001600160a01b03821661015157600280548290039055610170565b6001600160a01b03821660009081526020819052604090208054820190555b816001600160a01b0316836001600160a01b03167fddf252ad1be2c89b69c2b068fc378daa952ba7f163c4a11628f55a4df523b3ef836040516101b591815260200190565b60405180910390a3505050565b634e487b7160e01b600052604160045260246000fd5b600082601f8301126101e957600080fd5b81516001600160401b03811115610202576102026101c2565b604051601f8201601f19908116603f011681016001600160401b0381118282101715610230576102306101c2565b60405281815283820160200185101561024857600080fd5b60005b828110156102675760208186018101518383018201520161024b565b506000918101602001919091529392505050565b6000806000806080858703121561029157600080fd5b84516001600160401b038111156102a757600080fd5b6102b3878288016101d8565b602087015190955090506001600160401b038111156102d157600080fd5b6102dd878288016101d8565b604087015190945090506001600160a01b03811681146102fc57600080fd5b6060959095015193969295505050565b600181811c9082168061032057607f821691505b60208210810361034057634e487b7160e01b600052602260045260246000fd5b50919050565b601f82111561039057806000526020600020601f840160051c8101602085101561036d5750805b601f840160051c820191505b8181101561038d5760008155600101610379565b50505b505050565b81516001600160401b038111156103ae576103ae6101c2565b6103c2816103bc845461030c565b84610346565b6020601f8211600181146103f657600083156103de5750848201515b600019600385901b1c1916600184901b17845561038d565b600084815260208120601f198516915b828110156104265787850151825560209485019460019092019101610406565b50848210156104445786840151600019600387901b60f8161c191681555b50505050600190811b01905550565b8082018082111561047457634e487b7160e01b600052601160045260246000fd5b92915050565b610845806104896000396000f3fe608060405234801561001057600080fd5b50600436106100cf5760003560e01c806340c10f191161008c57806395d89b411161006657806395d89b41146101ad5780639dc29fac146101b5578063a9059cbb146101c8578063dd62ed3e146101db57600080fd5b806340c10f191461015e57806356189cb41461017157806370a082311461018457600080fd5b806306fdde03146100d4578063095ea7b3146100f257806318160ddd14610115578063222f5be01461012757806323b872dd1461013c578063313ce5671461014f575b600080fd5b6100dc610214565b6040516100e9919061068e565b60405180910390f35b6101056101003660046106f8565b6102a6565b60405190151581526020016100e9565b6002545b6040519081526020016100e9565b61013a610135366004610722565b6102c0565b005b61010561014a366004610722565b6102d0565b604051601281526020016100e9565b61013a61016c3660046106f8565b6102f4565b61013a61017f366004610722565b610302565b61011961019236600461075f565b6001600160a01b031660009081526020819052604090205490565b6100dc61030d565b61013a6101c33660046106f8565b61031c565b6101056101d63660046106f8565b610326565b6101196101e9366004610781565b6001600160a01b03918216600090815260016020908152604080832093909416825291909152205490565b606060038054610223906107b4565b80601f016020809104026020016040519081016040528092919081815260200182805461024f906107b4565b801561029c5780601f106102715761010080835404028352916020019161029c565b820191906000526020600020905b81548152906001019060200180831161027f57829003601f168201915b5050505050905090565b6000336102b4818585610334565b60019150505b92915050565b6102cb838383610341565b505050565b6000336102de8582856103a5565b6102e9858585610341565b506001949350505050565b6102fe8282610423565b5050565b6102cb838383610334565b606060048054610223906107b4565b6102fe8282610459565b6000336102b4818585610341565b6102cb838383600161048f565b6001600160a01b03831661037057604051634b637e8f60e11b8152600060048201526024015b60405180910390fd5b6001600160a01b03821661039a5760405163ec442f0560e01b815260006004820152602401610367565b6102cb838383610564565b6001600160a01b03838116600090815260016020908152604080832093861683529290522054600019811461041d578181101561040e57604051637dc7a0d960e11b81526001600160a01b03841660048201526024810182905260448101839052606401610367565b61041d8484848403600061048f565b50505050565b6001600160a01b03821661044d5760405163ec442f0560e01b815260006004820152602401610367565b6102fe60008383610564565b6001600160a01b03821661048357604051634b637e8f60e11b815260006004820152602401610367565b6102fe82600083610564565b6001600160a01b0384166104b95760405163e602df0560e01b815260006004820152602401610367565b6001600160a01b0383166104e357604051634a1406b160e11b815260006004820152602401610367565b6001600160a01b038085166000908152600160209081526040808320938716835292905220829055801561041d57826001600160a01b0316846001600160a01b03167f8c5be1e5ebec7d5bd14f71427d1e84f3dd0314c0f7b2291e5b200ac8c7c3b9258460405161055691815260200190565b60405180910390a350505050565b6001600160a01b03831661058f57806002600082825461058491906107ee565b909155506106019050565b6001600160a01b038316600090815260208190526040902054818110156105e25760405163391434e360e21b81526001600160a01b03851660048201526024810182905260448101839052606401610367565b6001600160a01b03841660009081526020819052604090209082900390555b6001600160a01b03821661061d5760028054829003905561063c565b6001600160a01b03821660009081526020819052604090208054820190555b816001600160a01b0316836001600160a01b03167fddf252ad1be2c89b69c2b068fc378daa952ba7f163c4a11628f55a4df523b3ef8360405161068191815260200190565b60405180910390a3505050565b602081526000825180602084015260005b818110156106bc576020818601810151604086840101520161069f565b506000604082850101526040601f19601f83011684010191505092915050565b80356001600160a01b03811681146106f357600080fd5b919050565b6000806040838503121561070b57600080fd5b610714836106dc565b946020939093013593505050565b60008060006060848603121561073757600080fd5b610740846106dc565b925061074e602085016106dc565b929592945050506040919091013590565b60006020828403121561077157600080fd5b61077a826106dc565b9392505050565b6000806040838503121561079457600080fd5b61079d836106dc565b91506107ab602084016106dc565b90509250929050565b600181811c908216806107c857607f821691505b6020821081036107e857634e487b7160e01b600052602260045260246000fd5b50919050565b808201808211156102ba57634e487b7160e01b600052601160045260246000fdfea2646970667358221220c5d25929a6bc80a1692d5e56b2f55e37916688cfef6089d2544e282bc78a057464736f6c634300081a0033","linkReferences":{}},"methodIdentifiers":{"allowance(address,address)":"dd62ed3e","approve(address,uint256)":"095ea7b3","approveInternal(address,address,uint256)":"56189cb4","balanceOf(address)":"70a08231","burn(address,uint256)":"9dc29fac","decimals()":"313ce567","mint(address,uint256)":"40c10f19","name()":"06fdde03","symbol()":"95d89b41","totalSupply()":"18160ddd","transfer(address,uint256)":"a9059cbb","transferFrom(address,address,uint256)":"23b872dd","transferInternal(address,address,uint256)":"222f5be0"},"id":33}