{"abi":[{"type":"constructor","inputs":[{"name":"tokenAddress","type":"address[]","internalType":"address[]"},{"name":"priceFeedAddress","type":"address[]","internalType":"address[]"},{"name":"dscAddress","type":"address","internalType":"address"}],"stateMutability":"nonpayable"},{"type":"function","name":"burnDsc","inputs":[{"name":"amount","type":"uint256","internalType":"uint256"}],"outputs":[],"stateMutability":"nonpayable"},{"type":"function","name":"calcualteHealthFactor","inputs":[{"name":"totalDiscMinted","type":"uint256","internalType":"uint256"},{"name":"collateralValueInUsd","type":"uint256","internalType":"uint256"}],"outputs":[{"name":"","type":"uint256","internalType":"uint256"}],"stateMutability":"pure"},{"type":"function","name":"depositCollateral","inputs":[{"name":"tokenCollateralAddress","type":"address","internalType":"address"},{"name":"amountCollateral","type":"uint256","internalType":"uint256"}],"outputs":[],"stateMutability":"nonpayable"},{"type":"function","name":"depositCollateralAndMintDsc","inputs":[{"name":"tokenCollateralAddress","type":"address","internalType":"address"},{"name":"amountCollateral","type":"uint256","internalType":"uint256"},{"name":"amountDscToMint","type":"uint256","internalType":"uint256"}],"outputs":[],"stateMutability":"nonpayable"},{"type":"function","name":"getAccountCollateralValue","inputs":[{"name":"user","type":"address","internalType":"address"}],"outputs":[{"name":"totalCollateralValueInUsd","type":"uint256","internalType":"uint256"}],"stateMutability":"view"},{"type":"function","name":"getAccountInformation","inputs":[{"name":"user","type":"address","internalType":"address"}],"outputs":[{"name":"totalDiscMinted","type":"uint256","internalType":"uint256"},{"name":"collateralValueInUsd","type":"uint256","internalType":"uint256"}],"stateMutability":"view"},{"type":"function","name":"getAdditionalFeedPrecision","inputs":[],"outputs":[{"name":"","type":"uint256","internalType":"uint256"}],"stateMutability":"pure"},{"type":"function","name":"getCollateralBalanceOfUser","inputs":[{"name":"user","type":"address","internalType":"address"},{"name":"token","type":"address","internalType":"address"}],"outputs":[{"name":"","type":"uint256","internalType":"uint256"}],"stateMutability":"view"},{"type":"function","name":"getCollateralTokenPriceFeed","inputs":[{"name":"token","type":"address","internalType":"address"}],"outputs":[{"name":"","type":"address","internalType":"address"}],"stateMutability":"view"},{"type":"function","name":"getCollateralTokens","inputs":[],"outputs":[{"name":"","type":"address[]","internalType":"address[]"}],"stateMutability":"view"},{"type":"function","name":"getDsc","inputs":[],"outputs":[{"name":"","type":"address","internalType":"address"}],"stateMutability":"view"},{"type":"function","name":"getHealthFactor","inputs":[{"name":"user","type":"address","internalType":"address"}],"outputs":[{"name":"","type":"uint256","internalType":"uint256"}],"stateMutability":"view"},{"type":"function","name":"getLiquidationBonus","inputs":[],"outputs":[{"name":"","type":"uint256","internalType":"uint256"}],"stateMutability":"pure"},{"type":"function","name":"getLiquidationPrecision","inputs":[],"outputs":[{"name":"","type":"uint256","internalType":"uint256"}],"stateMutability":"pure"},{"type":"function","name":"getLiquidationThreshold","inputs":[],"outputs":[{"name":"","type":"uint256","internalType":"uint256"}],"stateMutability":"pure"},{"type":"function","name":"getMinHealthFactor","inputs":[],"outputs":[{"name":"","type":"uint256","internalType":"uint256"}],"stateMutability":"pure"},{"type":"function","name":"getPrecision","inputs":[],"outputs":[{"name":"","type":"uint256","internalType":"uint256"}],"stateMutability":"pure"},{"type":"function","name":"getTokenAmountFromUsd","inputs":[{"name":"token","type":"address","internalType":"address"},{"name":"usdAmountInWei","type":"uint256","internalType":"uint256"}],"outputs":[{"name":"","type":"uint256","internalType":"uint256"}],"stateMutability":"view"},{"type":"function","name":"getUsdValue","inputs":[{"name":"token","type":"address","internalType":"address"},{"name":"amount","type":"uint256","internalType":"uint256"}],"outputs":[{"name":"","type":"uint256","internalType":"uint256"}],"stateMutability":"view"},{"type":"function","name":"healthFactor","inputs":[],"outputs":[],"stateMutability":"view"},{"type":"function","name":"liquidate","inputs":[{"name":"collateral","type":"address","internalType":"address"},{"name":"user","type":"address","internalType":"address"},{"name":"debtToCover","type":"uint256","internalType":"uint256"}],"outputs":[],"stateMutability":"nonpayable"},{"type":"function","name":"mintDsc","inputs":[{"name":"amountDiscToMint","type":"uint256","internalType":"uint256"}],"outputs":[],"stateMutability":"nonpayable"},{"type":"function","name":"redeemCollateral","inputs":[{"name":"tokenCollateralAddress","type":"address","internalType":"address"},{"name":"amountCollateral","type":"uint256","internalType":"uint256"}],"outputs":[],"stateMutability":"nonpayable"},{"type":"function","name":"redeemCollateralForDsc","inputs":[{"name":"tokenCollateralAddress","type":"address","internalType":"address"},{"name":"amountCollateral","type":"uint256","internalType":"uint256"},{"name":"amountDscToBurn","type":"uint256","internalType":"uint256"}],"outputs":[],"stateMutability":"nonpayable"},{"type":"event","name":"COllateralRedeemed","inputs":[{"name":"redeemFrom","type":"address","indexed":true,"internalType":"address"},{"name":"redeemTo","type":"address","indexed":true,"internalType":"address"},{"name":"token","type":"address","indexed":false,"internalType":"address"},{"name":"amount","type":"uint256","indexed":false,"internalType":"uint256"}],"anonymous":false},{"type":"event","name":"CollateralDeposited","inputs":[{"name":"user","type":"address","indexed":true,"internalType":"address"},{"name":"token","type":"address","indexed":true,"internalType":"address"},{"name":"amount","type":"uint256","indexed":true,"internalType":"uint256"}],"anonymous":false},{"type":"error","name":"DSCEngine_BreaksHealthFactor","inputs":[{"name":"healthFactorValue","type":"uint256","internalType":"uint256"}]},{"type":"error","name":"DSCEngine_HealthFactorNotImproved","inputs":[]},{"type":"error","name":"DSCEngine_HealthFactorOk","inputs":[]},{"type":"error","name":"DSCEngine_MintFailed","inputs":[]},{"type":"error","name":"DSCEngine__TokenAndPriceFeedLengthMismatch","inputs":[]},{"type":"error","name":"DSCEngine__TokenNotSupported","inputs":[{"name":"token","type":"address","internalType":"address"}]},{"type":"error","name":"DSCEngine__TransferFailed","inputs":[]},{"type":"error","name":"ReentrancyGuardReentrantCall","inputs":[]},{"type":"error","name":"amountMustBeMoreThanZero","inputs":[]}],"bytecode":{"object":"0x60a060405234801561001057600080fd5b5060405161144d38038061144d83398101604081905261002f91610224565b60016000558151835114610056576040516371c240c560e01b815260040160405180910390fd5b60005b8351811015610137578281815181106100745761007461029d565b6020026020010151600160008684815181106100925761009261029d565b60200260200101516001600160a01b03166001600160a01b0316815260200190815260200160002060006101000a8154816001600160a01b0302191690836001600160a01b0316021790555060048482815181106100f2576100f261029d565b60209081029190910181015182546001808201855560009485529290932090920180546001600160a01b0319166001600160a01b039093169290921790915501610059565b506001600160a01b0316608052506102b39050565b634e487b7160e01b600052604160045260246000fd5b80516001600160a01b038116811461017957600080fd5b919050565b600082601f83011261018f57600080fd5b81516001600160401b038111156101a8576101a861014c565b604051600582901b90603f8201601f191681016001600160401b03811182821017156101d6576101d661014c565b6040529182526020818501810192908101868411156101f457600080fd5b6020860192505b8383101561021a5761020c83610162565b8152602092830192016101fb565b5095945050505050565b60008060006060848603121561023957600080fd5b83516001600160401b0381111561024f57600080fd5b61025b8682870161017e565b602086015190945090506001600160401b0381111561027957600080fd5b6102858682870161017e565b92505061029460408501610162565b90509250925092565b634e487b7160e01b600052603260045260246000fd5b60805161116a6102e3600039600081816102f4015281816108ca01528181610c580152610cfd015261116a6000f3fe608060405234801561001057600080fd5b50600436106101585760003560e01c80639670c0bc116100c3578063c9b7c3271161007c578063c9b7c327146102df578063deb8e018146102f2578063e90db8a314610318578063f419ea9c1461032b578063f68766081461033e578063fe6bcd7c1461035157600080fd5b80639670c0bc146102655780639acd81b31461027e578063a5d5db0c14610291578063afea2e48146102a4578063b58eb63f146102b7578063c660d112146102cc57600080fd5b806359aa9e721161011557806359aa9e721461021c5780636c8102c0146102235780637be564fc1461022a5780637d1a4450146102525780638c1ae6c8146102655780638f63d6671461027357600080fd5b80631c08adda1461015d5780632264c7bf146101a657806322841f01146101c757806326c01303146101c957806331e92b83146101dc5780634ae9b8bc14610215575b600080fd5b61018961016b366004610ea5565b6001600160a01b039081166000908152600160205260409020541690565b6040516001600160a01b0390911681526020015b60405180910390f35b6101b96101b4366004610ec0565b610364565b60405190815260200161019d565b005b6101c76101d7366004610ee2565b610379565b6101b96101ea366004610f1f565b6001600160a01b03918216600090815260026020908152604080832093909416825291909152205490565b60326101b9565b600a6101b9565b60646101b9565b61023d610238366004610ea5565b61046c565b6040805192835260208301919091520161019d565b6101b9610260366004610ea5565b610481565b670de0b6b3a76400006101b9565b6402540be4006101b9565b6101c761028c366004610f52565b6104fe565b6101c761029f366004610f52565b610597565b6101b96102b2366004610f52565b61071b565b6102bf6107ed565b60405161019d9190610f7c565b6101b96102da366004610f52565b61084f565b6101c76102ed366004610fc8565b61085b565b7f0000000000000000000000000000000000000000000000000000000000000000610189565b6101c7610326366004610fe1565b61095f565b6101c7610339366004610fe1565b610972565b6101c761034c366004610fc8565b610a00565b6101b961035f366004610ea5565b610a3a565b60006103708383610a45565b90505b92915050565b808060000361039b57604051634ef6969b60e11b815260040160405180910390fd5b6103a3610a98565b60006103ae84610ac2565b9050670de0b6b3a764000081106103d85760405163356636af60e01b815260040160405180910390fd5b60006103e4868561071b565b9050600060646103f5600a8461102a565b6103ff9190611041565b90506104168761040f8385611063565b8833610ade565b610421858733610bfc565b600061042c87610ac2565b90508381101561044f57604051636d44d06560e01b815260040160405180910390fd5b61045887610d67565b505050506104666001600055565b50505050565b60008061047883610da0565b91509150915091565b6000805b6004548110156104f8576000600482815481106104a4576104a4611076565b60009182526020808320909101546001600160a01b038781168452600283526040808520919092168085529252909120549091506104e28282610dca565b6104ec9085611063565b93505050600101610485565b50919050565b808060000361052057604051634ef6969b60e11b815260040160405180910390fd5b610528610a98565b6001600160a01b03808416600090815260016020526040902054849116610572576040516368ee593f60e11b81526001600160a01b03821660048201526024015b60405180910390fd5b61057e84843333610ade565b61058733610d67565b506105926001600055565b505050565b80806000036105b957604051634ef6969b60e11b815260040160405180910390fd5b6001600160a01b038084166000908152600160205260409020548491166105fe576040516368ee593f60e11b81526001600160a01b0382166004820152602401610569565b610606610a98565b3360009081526002602090815260408083206001600160a01b038816845290915281208054859290610639908490611063565b909155505060405183906001600160a01b0386169033907ff1c0dd7e9b98bbff859029005ef89b127af049cd18df1a8d79f0b7e019911e5690600090a46040516323b872dd60e01b8152336004820152306024820152604481018490526000906001600160a01b038616906323b872dd906064016020604051808303816000875af11580156106cc573d6000803e3d6000fd5b505050506040513d601f19601f820116820180604052508101906106f0919061108c565b90508061071057604051634dc34d1760e01b815260040160405180910390fd5b506104666001600055565b6001600160a01b038281166000908152600160205260408082205490516315d0e4b560e11b81529216600483018190529091829073__$1f06ac8d622ce42796cee98ba1044ce165$__90632ba1c96a9060240160a060405180830381865af415801561078b573d6000803e3d6000fd5b505050506040513d601f19601f820116820180604052508101906107af91906110cf565b5050509150506402540be40081670de0b6b3a7640000866107d0919061102a565b6107da9190611041565b6107e49190611041565b95945050505050565b6060600480548060200260200160405190810160405280929190818152602001828054801561084557602002820191906000526020600020905b81546001600160a01b03168152600190910190602001808311610827575b5050505050905090565b60006103708383610dca565b808060000361087d57604051634ef6969b60e11b815260040160405180910390fd5b336000908152600360205260408120805484929061089c908490611063565b909155506108ab905033610d67565b6040516340c10f1960e01b8152336004820152602481018390526000907f00000000000000000000000000000000000000000000000000000000000000006001600160a01b0316906340c10f19906044016020604051808303816000875af115801561091b573d6000803e3d6000fd5b505050506040513d601f19601f8201168201806040525081019061093f919061108c565b90508061059257604051636961c56f60e11b815260040160405180910390fd5b6109698383610597565b6105928161085b565b818060000361099457604051634ef6969b60e11b815260040160405180910390fd5b6001600160a01b038085166000908152600160205260409020548591166109d9576040516368ee593f60e11b81526001600160a01b0382166004820152602401610569565b6109e4833333610bfc565b6109f085853333610ade565b6109f933610d67565b5050505050565b8080600003610a2257604051634ef6969b60e11b815260040160405180910390fd5b610a2d823333610bfc565b610a3633610d67565b5050565b600061037382610ac2565b600082600003610a585750600019610373565b60006064610a6760328561102a565b610a719190611041565b905083610a86670de0b6b3a76400008361102a565b610a909190611041565b949350505050565b600260005403610abb57604051633ee5aeb560e01b815260040160405180910390fd5b6002600055565b6000806000610ad084610da0565b91509150610a908282610a45565b6001600160a01b03808316600090815260026020908152604080832093881683529290529081208054859290610b15908490611121565b9091555050604080516001600160a01b0386811682526020820186905280841692908516917f01c18278718bf65d30db4f9a92f14cc9f354b8a7fbdfb724d1f5b14fa589afd9910160405180910390a360405163a9059cbb60e01b81526001600160a01b038281166004830152602482018590526000919086169063a9059cbb906044016020604051808303816000875af1158015610bb8573d6000803e3d6000fd5b505050506040513d601f19601f82011682018060405250810190610bdc919061108c565b9050806109f957604051634dc34d1760e01b815260040160405180910390fd5b6001600160a01b03821660009081526003602052604081208054859290610c24908490611121565b90915550506040516323b872dd60e01b81526001600160a01b038281166004830152306024830152604482018590526000917f0000000000000000000000000000000000000000000000000000000000000000909116906323b872dd906064016020604051808303816000875af1158015610ca3573d6000803e3d6000fd5b505050506040513d601f19601f82011682018060405250810190610cc7919061108c565b905080610ce757604051634dc34d1760e01b815260040160405180910390fd5b604051630852cd8d60e31b8152600481018590527f00000000000000000000000000000000000000000000000000000000000000006001600160a01b0316906342966c6890602401600060405180830381600087803b158015610d4957600080fd5b505af1158015610d5d573d6000803e3d6000fd5b5050505050505050565b6000610d7282610ac2565b9050670de0b6b3a7640000811015610a3657604051638b5c142b60e01b815260048101829052602401610569565b6001600160a01b03811660009081526003602052604081205490610dc383610481565b9050915091565b6001600160a01b038281166000908152600160205260408082205490516315d0e4b560e11b81529216600483018190529091829073__$1f06ac8d622ce42796cee98ba1044ce165$__90632ba1c96a9060240160a060405180830381865af4158015610e3a573d6000803e3d6000fd5b505050506040513d601f19601f82011682018060405250810190610e5e91906110cf565b505050915050670de0b6b3a7640000846402540be40083610e7f919061102a565b6107da919061102a565b80356001600160a01b0381168114610ea057600080fd5b919050565b600060208284031215610eb757600080fd5b61037082610e89565b60008060408385031215610ed357600080fd5b50508035926020909101359150565b600080600060608486031215610ef757600080fd5b610f0084610e89565b9250610f0e60208501610e89565b929592945050506040919091013590565b60008060408385031215610f3257600080fd5b610f3b83610e89565b9150610f4960208401610e89565b90509250929050565b60008060408385031215610f6557600080fd5b610f6e83610e89565b946020939093013593505050565b602080825282518282018190526000918401906040840190835b81811015610fbd5783516001600160a01b0316835260209384019390920191600101610f96565b509095945050505050565b600060208284031215610fda57600080fd5b5035919050565b600080600060608486031215610ff657600080fd5b610fff84610e89565b95602085013595506040909401359392505050565b634e487b7160e01b600052601160045260246000fd5b808202811582820484141761037357610373611014565b60008261105e57634e487b7160e01b600052601260045260246000fd5b500490565b8082018082111561037357610373611014565b634e487b7160e01b600052603260045260246000fd5b60006020828403121561109e57600080fd5b815180151581146110ae57600080fd5b9392505050565b805169ffffffffffffffffffff81168114610ea057600080fd5b600080600080600060a086880312156110e757600080fd5b6110f0866110b5565b60208701516040880151606089015192975090955093509150611115608087016110b5565b90509295509295909350565b818103818111156103735761037361101456fea26469706673582212200d9400a110bbdb18033cd4a4d9efbb33716d8c0ed99f1fdc75ca7fa072ca38a964736f6c634300081a0033","linkReferences":{"src/libraries/OracleLib.sol":{"OracleLib":[{"start":2612,"length":20},{"start":4323,"length":20}]}}},"methodIdentifiers":{"burnDsc(uint256)":"f6876608","calcualteHealthFactor(uint256,uint256)":"2264c7bf","depositCollateral(address,uint256)":"a5d5db0c","depositCollateralAndMintDsc(address,uint256,uint256)":"e90db8a3","getAccountCollateralValue(address)":"7d1a4450","getAccountInformation(address)":"7be564fc","getAdditionalFeedPrecision()":"8f63d667","getCollateralBalanceOfUser(address,address)":"31e92b83","getCollateralTokenPriceFeed(address)":"1c08adda","getCollateralTokens()":"b58eb63f","getDsc()":"deb8e018","getHealthFactor(address)":"fe6bcd7c","getLiquidationBonus()":"59aa9e72","getLiquidationPrecision()":"6c8102c0","getLiquidationThreshold()":"4ae9b8bc","getMinHealthFactor()":"8c1ae6c8","getPrecision()":"9670c0bc","getTokenAmountFromUsd(address,uint256)":"afea2e48","getUsdValue(address,uint256)":"c660d112","healthFactor()":"22841f01","liquidate(address,address,uint256)":"26c01303","mintDsc(uint256)":"c9b7c327","redeemCollateral(address,uint256)":"9acd81b3","redeemCollateralForDsc(address,uint256,uint256)":"f419ea9c"},"id":30}