{"abi":[{"type":"constructor","inputs":[],"stateMutability":"nonpayable"},{"type":"function","name":"allowance","inputs":[{"name":"owner","type":"address","internalType":"address"},{"name":"spender","type":"address","internalType":"address"}],"outputs":[{"name":"","type":"uint256","internalType":"uint256"}],"stateMutability":"view"},{"type":"function","name":"approve","inputs":[{"name":"spender","type":"address","internalType":"address"},{"name":"value","type":"uint256","internalType":"uint256"}],"outputs":[{"name":"","type":"bool","internalType":"bool"}],"stateMutability":"nonpayable"},{"type":"function","name":"balanceOf","inputs":[{"name":"account","type":"address","internalType":"address"}],"outputs":[{"name":"","type":"uint256","internalType":"uint256"}],"stateMutability":"view"},{"type":"function","name":"burn","inputs":[{"name":"_amount","type":"uint256","internalType":"uint256"}],"outputs":[],"stateMutability":"nonpayable"},{"type":"function","name":"burnFrom","inputs":[{"name":"account","type":"address","internalType":"address"},{"name":"value","type":"uint256","internalType":"uint256"}],"outputs":[],"stateMutability":"nonpayable"},{"type":"function","name":"decimals","inputs":[],"outputs":[{"name":"","type":"uint8","internalType":"uint8"}],"stateMutability":"view"},{"type":"function","name":"mint","inputs":[{"name":"account","type":"address","internalType":"address"},{"name":"amount","type":"uint256","internalType":"uint256"}],"outputs":[],"stateMutability":"nonpayable"},{"type":"function","name":"name","inputs":[],"outputs":[{"name":"","type":"string","internalType":"string"}],"stateMutability":"view"},{"type":"function","name":"owner","inputs":[],"outputs":[{"name":"","type":"address","internalType":"address"}],"stateMutability":"view"},{"type":"function","name":"renounceOwnership","inputs":[],"outputs":[],"stateMutability":"nonpayable"},{"type":"function","name":"symbol","inputs":[],"outputs":[{"name":"","type":"string","internalType":"string"}],"stateMutability":"view"},{"type":"function","name":"totalSupply","inputs":[],"outputs":[{"name":"","type":"uint256","internalType":"uint256"}],"stateMutability":"view"},{"type":"function","name":"transfer","inputs":[{"name":"to","type":"address","internalType":"address"},{"name":"value","type":"uint256","internalType":"uint256"}],"outputs":[{"name":"","type":"bool","internalType":"bool"}],"stateMutability":"nonpayable"},{"type":"function","name":"transferFrom","inputs":[{"name":"","type":"address","internalType":"address"},{"name":"","type":"address","internalType":"address"},{"name":"","type":"uint256","internalType":"uint256"}],"outputs":[{"name":"","type":"bool","internalType":"bool"}],"stateMutability":"pure"},{"type":"function","name":"transferOwnership","inputs":[{"name":"newOwner","type":"address","internalType":"address"}],"outputs":[],"stateMutability":"nonpayable"},{"type":"event","name":"Approval","inputs":[{"name":"owner","type":"address","indexed":true,"internalType":"address"},{"name":"spender","type":"address","indexed":true,"internalType":"address"},{"name":"value","type":"uint256","indexed":false,"internalType":"uint256"}],"anonymous":false},{"type":"event","name":"OwnershipTransferred","inputs":[{"name":"previousOwner","type":"address","indexed":true,"internalType":"address"},{"name":"newOwner","type":"address","indexed":true,"internalType":"address"}],"anonymous":false},{"type":"event","name":"Transfer","inputs":[{"name":"from","type":"address","indexed":true,"internalType":"address"},{"name":"to","type":"address","indexed":true,"internalType":"address"},{"name":"value","type":"uint256","indexed":false,"internalType":"uint256"}],"anonymous":false},{"type":"error","name":"DecentralizedStableCoin__AmountMustBeMoreThanZero","inputs":[]},{"type":"error","name":"DecentralizedStableCoin__BurnAmountExceedsBalance","inputs":[]},{"type":"error","name":"DecentralizedStableCoin__NotZeroAddress","inputs":[]},{"type":"error","name":"ERC20InsufficientAllowance","inputs":[{"name":"spender","type":"address","internalType":"address"},{"name":"allowance","type":"uint256","internalType":"uint256"},{"name":"needed","type":"uint256","internalType":"uint256"}]},{"type":"error","name":"ERC20InsufficientBalance","inputs":[{"name":"sender","type":"address","internalType":"address"},{"name":"balance","type":"uint256","internalType":"uint256"},{"name":"needed","type":"uint256","internalType":"uint256"}]},{"type":"error","name":"ERC20InvalidApprover","inputs":[{"name":"approver","type":"address","internalType":"address"}]},{"type":"error","name":"ERC20InvalidReceiver","inputs":[{"name":"receiver","type":"address","internalType":"address"}]},{"type":"error","name":"ERC20InvalidSender","inputs":[{"name":"sender","type":"address","internalType":"address"}]},{"type":"error","name":"ERC20InvalidSpender","inputs":[{"name":"spender","type":"address","internalType":"address"}]},{"type":"error","name":"OwnableInvalidOwner","inputs":[{"name":"owner","type":"address","internalType":"address"}]},{"type":"error","name":"OwnableUnauthorizedAccount","inputs":[{"name":"account","type":"address","internalType":"address"}]}],"bytecode":{"object":"0x608060405234801561001057600080fd5b50336040518060400160405280601781526020017f446563656e7472616c697a6564537461626c65436f696e0000000000000000008152506040518060400160405280600381526020016244534360e81b815250816003908161007391906101b1565b50600461008082826101b1565b5050506001600160a01b0381166100b157604051631e4fbdf760e01b81526000600482015260240160405180910390fd5b6100ba816100c0565b5061026f565b600580546001600160a01b038381166001600160a01b0319831681179093556040519116919082907f8be0079c531659141344cd1fd0a4f28419497f9722a3daafe3b4186f6b6457e090600090a35050565b634e487b7160e01b600052604160045260246000fd5b600181811c9082168061013c57607f821691505b60208210810361015c57634e487b7160e01b600052602260045260246000fd5b50919050565b601f8211156101ac57806000526020600020601f840160051c810160208510156101895750805b601f840160051c820191505b818110156101a95760008155600101610195565b50505b505050565b81516001600160401b038111156101ca576101ca610112565b6101de816101d88454610128565b84610162565b6020601f82116001811461021257600083156101fa5750848201515b600019600385901b1c1916600184901b1784556101a9565b600084815260208120601f198516915b828110156102425787850151825560209485019460019092019101610222565b50848210156102605786840151600019600387901b60f8161c191681555b50505050600190811b01905550565b6109b78061027e6000396000f3fe608060405234801561001057600080fd5b50600436106100f55760003560e01c806370a082311161009757806395d89b411161006657806395d89b41146101fa578063a9059cbb14610202578063dd62ed3e14610215578063f2fde38b1461024e57600080fd5b806370a082311461019b578063715018a6146101c457806379cc6790146101cc5780638da5cb5b146101df57600080fd5b806323b872dd116100d357806323b872dd1461014d578063313ce5671461016457806340c10f191461017357806342966c681461018857600080fd5b806306fdde03146100fa578063095ea7b31461011857806318160ddd1461013b575b600080fd5b610102610261565b60405161010f91906107e7565b60405180910390f35b61012b610126366004610851565b6102f3565b604051901515815260200161010f565b6002545b60405190815260200161010f565b61012b61015b36600461087b565b60009392505050565b6040516012815260200161010f565b610186610181366004610851565b61030d565b005b6101866101963660046108b8565b61031b565b61013f6101a93660046108d1565b6001600160a01b031660009081526020819052604090205490565b61018661037b565b6101866101da366004610851565b61038f565b6005546040516001600160a01b03909116815260200161010f565b6101026103a4565b61012b610210366004610851565b6103b3565b61013f6102233660046108f3565b6001600160a01b03918216600090815260016020908152604080832093909416825291909152205490565b61018661025c3660046108d1565b6103c1565b60606003805461027090610926565b80601f016020809104026020016040519081016040528092919081815260200182805461029c90610926565b80156102e95780601f106102be576101008083540402835291602001916102e9565b820191906000526020600020905b8154815290600101906020018083116102cc57829003601f168201915b5050505050905090565b600033610301818585610404565b60019150505b92915050565b6103178282610416565b5050565b61032361044c565b33600090815260208190526040902054816103515760405163ae8ba12360e01b815260040160405180910390fd5b818110156103725760405163fe9c6abb60e01b815260040160405180910390fd5b61031782610479565b61038361044c565b61038d6000610483565b565b61039a8233836104d5565b6103178282610553565b60606004805461027090610926565b600033610301818585610589565b6103c961044c565b6001600160a01b0381166103f857604051631e4fbdf760e01b8152600060048201526024015b60405180910390fd5b61040181610483565b50565b61041183838360016105e8565b505050565b6001600160a01b0382166104405760405163ec442f0560e01b8152600060048201526024016103ef565b610317600083836106bd565b6005546001600160a01b0316331461038d5760405163118cdaa760e01b81523360048201526024016103ef565b6104013382610553565b600580546001600160a01b038381166001600160a01b0319831681179093556040519116919082907f8be0079c531659141344cd1fd0a4f28419497f9722a3daafe3b4186f6b6457e090600090a35050565b6001600160a01b03838116600090815260016020908152604080832093861683529290522054600019811461054d578181101561053e57604051637dc7a0d960e11b81526001600160a01b038416600482015260248101829052604481018390526064016103ef565b61054d848484840360006105e8565b50505050565b6001600160a01b03821661057d57604051634b637e8f60e11b8152600060048201526024016103ef565b610317826000836106bd565b6001600160a01b0383166105b357604051634b637e8f60e11b8152600060048201526024016103ef565b6001600160a01b0382166105dd5760405163ec442f0560e01b8152600060048201526024016103ef565b6104118383836106bd565b6001600160a01b0384166106125760405163e602df0560e01b8152600060048201526024016103ef565b6001600160a01b03831661063c57604051634a1406b160e11b8152600060048201526024016103ef565b6001600160a01b038085166000908152600160209081526040808320938716835292905220829055801561054d57826001600160a01b0316846001600160a01b03167f8c5be1e5ebec7d5bd14f71427d1e84f3dd0314c0f7b2291e5b200ac8c7c3b925846040516106af91815260200190565b60405180910390a350505050565b6001600160a01b0383166106e85780600260008282546106dd9190610960565b9091555061075a9050565b6001600160a01b0383166000908152602081905260409020548181101561073b5760405163391434e360e21b81526001600160a01b038516600482015260248101829052604481018390526064016103ef565b6001600160a01b03841660009081526020819052604090209082900390555b6001600160a01b03821661077657600280548290039055610795565b6001600160a01b03821660009081526020819052604090208054820190555b816001600160a01b0316836001600160a01b03167fddf252ad1be2c89b69c2b068fc378daa952ba7f163c4a11628f55a4df523b3ef836040516107da91815260200190565b60405180910390a3505050565b602081526000825180602084015260005b8181101561081557602081860181015160408684010152016107f8565b506000604082850101526040601f19601f83011684010191505092915050565b80356001600160a01b038116811461084c57600080fd5b919050565b6000806040838503121561086457600080fd5b61086d83610835565b946020939093013593505050565b60008060006060848603121561089057600080fd5b61089984610835565b92506108a760208501610835565b929592945050506040919091013590565b6000602082840312156108ca57600080fd5b5035919050565b6000602082840312156108e357600080fd5b6108ec82610835565b9392505050565b6000806040838503121561090657600080fd5b61090f83610835565b915061091d60208401610835565b90509250929050565b600181811c9082168061093a57607f821691505b60208210810361095a57634e487b7160e01b600052602260045260246000fd5b50919050565b8082018082111561030757634e487b7160e01b600052601160045260246000fdfea2646970667358221220cb6e0540d07ba1502b2627da6f39694a83748ff4022e960022ee8433f9ef6b7e64736f6c634300081a0033","linkReferences":{}},"methodIdentifiers":{"allowance(address,address)":"dd62ed3e","approve(address,uint256)":"095ea7b3","balanceOf(address)":"70a08231","burn(uint256)":"42966c68","burnFrom(address,uint256)":"79cc6790","decimals()":"313ce567","mint(address,uint256)":"40c10f19","name()":"06fdde03","owner()":"8da5cb5b","renounceOwnership()":"715018a6","symbol()":"95d89b41","totalSupply()":"18160ddd","transfer(address,uint256)":"a9059cbb","transferFrom(address,address,uint256)":"23b872dd","transferOwnership(address)":"f2fde38b"},"id":41}